:020000040800F2
:10000000900B00202D3A00083D0600083F0600082E
:1000100043060008470600084B06000800000000E1
:100020000000000000000000000000004F06000873
:10003000510600080000000053060008C115000822
:10004000473A0008473A0008473A0008473A00088C
:10005000473A0008473A0008473A0008473A00087C
:10006000473A0008473A0008473A0008473A00086C
:10007000473A0008473A0008473A0008473A00085C
:10008000473A0008473A0008473A0008473A00084C
:10009000473A0008473A0008473A0008473A00083C
:1000A000473A0008473A0008473A0008473A00082C
:1000B000473A0008473A0008473A0008473A00081C
:1000C000473A0008473A0008473A0008473A00080C
:1000D000473A0008473A0008473A0008473A0008FC
:1000E000473A0008473A0008473A0008473A0008EC
:1000F000473A00086F060008473A0008473A0008E8
:10010000473A0008473A0008473A0008473A0008CB
:10011000473A0008550600085F080008473A0008FB
:10012000473A0008473A0008473A0008473A0008AB
:10013000473A0008473A0008473A0008473A00089B
:10014000473A0008473A0008473A0008473A00088B
:10015000473A0008473A0008473A0008473A00087B
:10016000473A0008473A0008473A0008473A00086B
:10017000473A0008473A0008473A0008473A00085B
:10018000473A0008473A000800F002F800F05CF82F
:100190000AA090E8000C82448344AAF10107DA45E2
:1001A00001D100F051F8AFF2090EBAE80F0013F0D8
:1001B000010F18BFFB1A43F0010318474C41000020
:1001C0006C4100000A444FF0000C10F8013B13F0A2
:1001D000070408BF10F8014B1D1108BF10F8015BA0
:1001E000641E05D010F8016B641E01F8016BF9D193
:1001F00013F0080F1EBF10F8014BAD1C0C1B09D1EA
:100200006D1E58BF01F801CBFAD505E014F8016B5B
:1002100001F8016B6D1EF9D59142D6D370470000ED
:100220000023002400250026103A28BF78C1FBD8FF
:10023000520728BF30C148BF0B6070471FB503F09D
:1002400052FC1FBD10B510BD03F013FC1146FFF7A3
:10025000F5FF00F009F803F031FC03B4FFF7F2FFFB
:1002600003BC03F039FC000008B54FF4A06001F0B6
:100270007BFE01F0C0F901F0CDFD01F04DFB40F235
:10028000473140F2F31000F0BEFE40F2473140F239
:10029000F31000F02DFE00F03CFD00F0AEFC00F08D
:1002A00031FC40F2473140F2F31000F0B5FD01F0AF
:1002B00005FE00F013FE01F085FB002001F0F0FBCD
:1002C0004FF4FA7001F05AF99BE1CE48B0F9000002
:1002D00000280BDACC4800684042CC490860022371
:1002E000CBA20021084601F0B0FC09E0C648006836
:1002F000C64908600223C7A20021084601F0A5FCF8
:10030000C548B0F9000000280BDAC4480068404234
:10031000C34908600223BEA21946002001F095FCE3
:1003200009E0BE480068BE4908600223B9A2194628
:10033000002001F08AFCBB48B0F9000000280BDA6D
:10034000B94800684042B94908600223B0A20421BC
:10035000002001F07AFC09E0B3480068B349086066
:100360000223ACA20421002001F06FFCB048B0F9D8
:10037000000000280CDAAE48B0F900004042AD4958
:1003800008600223A2A20021382001F05EFC0AE0EE
:10039000A748B0F90000A749086002239DA20021E8
:1003A000382001F052FCA34800680A2190FBF1F4C8
:1003B00010200123224600210090402001F001FC82
:1003C0009C4800680A2190FBF1F201FB1204102006
:1003D0000123224600210090482001F0F2FB9648BC
:1003E00000780A2190FBF1F4102001232246042119
:1003F0000090402001F0E5FB8F4800780A2190FB37
:10040000F1F201FB12041020012322460421009086
:10041000482001F0D6FB7D4800684FF47A7190FBCC
:10042000F1F410200123224600210090082001F061
:10043000C8FB764800684FF47A7190FBF1F201FB3B
:100440001200642190FBF1F41020012322460021C8
:10045000009001F0B6FB6D4800684FF47A7190FB94
:10046000F1F201FB1200642190FBF1F201FB12009A
:100470000A2190FBF1F41020012322460021009074
:10048000182001F09EFB614800684FF47A7190FBE0
:10049000F1F201FB1200642190FBF1F201FB12006A
:1004A0000A2190FBF1F201FB1204102001232246E5
:1004B00000210090202001F084FB594800684FF48F
:1004C0007A7190FBF1F41020012322460221009062
:1004D000082001F076FB524800684FF47A7190FBD7
:1004E000F1F201FB1200642190FBF1F410200123D2
:1004F00022460221009001F064FB494800684FF455
:100500007A7190FBF1F201FB1200642190FBF1F291
:1005100001FB12000A2190FBF1F410200123224676
:1005200002210090182001F04CFB3D4800684FF478
:100530007A7190FBF1F201FB1200642190FBF1F261
:1005400001FB12000A2190FBF1F201FB12041020C2
:100550000123224602210090202001F032FB334883
:1005600000684FF47A7190FBF1F4102001232246C9
:1005700004210090082001F024FB2C4800684FF46F
:100580007A7190FBF1F201FB1200642190FBF1F40F
:100590001020012322460421009001F012FB234881
:1005A00000684FF47A7190FBF1F201FB12006421B4
:1005B00090FBF1F201FB12000A2190FBF1F41020F4
:1005C0000123224604210090182001F0FAFA17486E
:1005D00000684FF47A7190FBF1F201FB1200642184
:1005E00090FBF1F201FB12000A2190FBF1F201FBFA
:1005F000120410200123224604210090202001F043
:10060000E0FA62E6440000204000002004000020E0
:100610002D0000002B000000460000203C000020C0
:100620000C000020480000203800002014000020AA
:10063000000000201C00002020000020704700BFA8
:10064000FEE700BFFEE700BFFEE700BFFEE7704722
:100650007047704710B540F22551984803F09CF957
:1006600020B1964803F0D6F89549088010BD10B522
:100670000121944802F0C3FE01287CD100F0AFFABA
:100680009149086000F036FB9049086000F0AEFB2D
:100690008F4908608A48008805286DD2DFE800F09D
:1006A00003284D759A008B48B0F9000000EE100A3F
:1006B000B8EEC00AF0EE080A30EE200ABDEEC00A1D
:1006C00010EE100A00B2844908808448B0F9000096
:1006D00000EE100AB8EEC00AF0EE080A30EE200A6A
:1006E000BDEEC00A10EE100A00B27D490880A1E0FC
:1006F0007848B0F9000000EE100AB8EEC00AF0EE3B
:10070000000A30EE200ABDEEC00A10EE100A00B258
:10071000714908807148B0F9000000EE100AB8EE87
:10072000C00AF0EE000A30EE200ABDEEC00A10EE5C
:10073000100A00B26A4908807CE06648B0F90000FF
:1007400000EE100AB8EEC00ADFED660A30EE200AAD
:10075000BDEEC00A10EE100A00B25F4908805F4883
:10076000B0F9000000EE100AB8EEC00ADFED5D0A35
:1007700030EE600A01E06DE051E0BDEEC00A10EE1F
:10078000100A00B25649088054E05248B0F90000FF
:1007900000EE100AB8EEC00AF0EE000A30EE600A71
:1007A000BDEEC00A10EE100A00B24B4908804B485B
:1007B000B0F9000000EE100AB8EEC00AF0EE000A30
:1007C00030EE600ABDEEC00A10EE100A00B24449D5
:1007D00008802FE03F48B0F9000000EE100AB8EEA4
:1007E000C00AF0EE080A30EE600ABDEEC00A10EE54
:1007F000100A00B2384908803848B0F9000000EE0D
:10080000100AB8EEC00AF0EE080A30EE600ABDEE3B
:10081000C00A10EE100A00B2314908800AE02D48E3
:10082000B0F900002C4908802C48B0F900002C4990
:10083000088000BF00BF2848B0F9000000F00EFD9E
:100840002948B0F9000000F07CFD2548B0F900000F
:1008500000F0EAFD01211B4802F0E2FD10BD10B5D9
:100860000121224802F0CBFD38B31021204801F0CD
:100870006BFB60B91F480088401C00B21D4908800E
:1008800000220846B0F90010104600F02DFC20218F
:10089000174801F059FB60B916480088401E00B2A5
:1008A0001449088000220846B0F90010104600F0F4
:1008B0001BFC01210D4802F0B3FD10BD00500040AB
:1008C0002000002000200040400000203C000020CC
:1008D000380000204A000020440000204C00002086
:1008E00048000020000000004600002000100040EA
:1008F00000080240000000200CB50020019000908C
:100900007648006840F480307449086000BF73483E
:10091000006800F4003000900198401C019000989D
:1009200018B90198B0F5A04FF1D16C48006800F4F7
:10093000003010B10120009001E0002000900098EC
:10094000012846D165484030006840F08050634936
:10095000403108606248006840F4404060490860E7
:100960005E48083000685D49083108600846006844
:1009700040F4004008600846006840F4A050086059
:100980005848091F0860081F006840F08070091F60
:10099000086000BF5148006800F000700028F9D0DE
:1009A00040F20570504908604C480830006820F05B
:1009B00003004A49083108600846006840F0020018
:1009C000086000BF45480830006800F00C000828A7
:1009D000F8D10CBD10B54548006840F4700043499B
:1009E00008603E48006840F001003C490860002073
:1009F0003A4908310860394800683D49084037499C
:100A000008603C48091D0860081F006820F4802029
:100A1000091F0860002031490C310860FFF76CFFA6
:100A20004FF0006031498039086010BD70B500207A
:100A30000022022300240221284D08352D6805F0EC
:100A40000C0020B1042806D0082834D107E02A4D34
:100A50002A4E356033E0284D284E35602FE01F4D7B
:100A60002D1D2D68C5F380541C4D2D1D2D6805F0DE
:100A70003F0154B1204DB5FBF1F5184E361D3668D7
:100A8000C6F3881605FB06F209E01B4DB5FBF1F530
:100A9000124E361D3668C6F3881605FB06F20F4D5A
:100AA0002D1D2D68C5F301456D1C6B00B2FBF3F5E0
:100AB000124E356003E0104D104E356000BF00BF90
:100AC000064D08352D68C5F303150D4E705D0B4DB1
:100AD0002D68C540094E356070BD000000380240E9
:100AE0000070004010544007003C024088ED00E0D8
:100AF000FFFFF6FE103000240024F4002400002044
:100B00002800002000B589B00121084601F0C0FD91
:100B10000121082001F003FE02220021BA4801F061
:100B2000A4FB02220121B84801F09FFB032007909B
:100B300002208DF8200003208DF8210001208DF87F
:100B4000230007A9B04801F005FB0020ADF8100014
:100B50004FF6FF7005900020ADF81800ADF81200B8
:100B600004A9AA4801F093FF02231A460321A748CB
:100B700002F001FD0020ADF804000120ADF80800EE
:100B800001A9A24802F05AFB0420ADF8040001209C
:100B9000ADF8080001A99D4802F050FB32208DF805
:100BA000000001208DF801008DF802008DF803008F
:100BB000684601F0DEF90121944802F01DFC012293
:100BC0001146924802F004FC4FF400418F4801F0B6
:100BD000A7FF01218D4801F0E3FF09B000BD10B56A
:100BE00000248A4801F0A0FFA0F500444FF4004122
:100BF000864801F095FF204610BD00B589B001215F
:100C0000032001F045FD0121084601F088FD012285
:100C100005217D4801F029FB012203217C4801F0D8
:100C200024FB2020079002208DF8200003208DF85F
:100C3000210001208DF8230007A9734801F08AFAEA
:100C40000820079002208DF8200003208DF8210055
:100C500001208DF8230007A96D4801F07BFA0020E0
:100C6000ADF810004FF6FF7005900020ADF81800A9
:100C7000ADF8120004A94FF0804001F008FF0223F4
:100C80001A460321580702F076FC0020ADF8040054
:100C90000120ADF8080001A9800702F0CFFA042076
:100CA000ADF804000120ADF8080001A9800702F0AA
:100CB000C5FA1C208DF8000001208DF801008DF888
:100CC00002008DF80300684601F053F901218807FE
:100CD00002F092FB01221146900702F079FB4FF4DB
:100CE0000041C80301F01CFF0121880701F058FFF3
:100CF00009B000BD10B500244FF0804001F014FF92
:100D0000A0F500444FF40041C80301F009FF20465C
:100D100010BD00B589B00121084601F0B9FC0121E0
:100D2000022001F0FCFC02220621374801F09DFA66
:100D300002220721344801F098FAC02007900220CF
:100D40008DF8200003208DF8210001208DF823006C
:100D500007A92D4801F0FEF90020ADF810004FF66C
:100D6000FF7005900020ADF81800ADF8120004A93E
:100D7000284801F08CFE02231A460321254802F080
:100D8000FAFB0020ADF804000120ADF8080001A92D
:100D9000204802F053FA0420ADF804000120ADF819
:100DA000080001A91B4802F049FA1D208DF8000037
:100DB00001208DF801008DF802008DF803006846CF
:100DC00001F0D7F80121134802F016FB0122114669
:100DD000104802F0FDFA4FF400410E4801F0A0FE69
:100DE00001210C4801F0DCFE09B000BD10B5002463
:100DF000084801F099FEA0F500444FF40041054871
:100E000001F08EFE204610BD00000240000C0040A4
:100E100000040240000400407FB505460C46012155
:100E2000080201F07CFC0295ADF804400020ADF80A
:100E30000600ADF80C0001A92B4801F028FE0122A4
:100E40001146294802F0C4FA0121274801F0A8FE02
:100E50004FF4A06001F088F82D208DF800000020EC
:100E60008DF801008DF8020001208DF8030068461E
:100E700001F07FF87FBD08B54FF4E06001F074F831
:100E800036208DF8000001208DF8010003208DF838
:100E9000020001208DF80300684601F06AF808BDE1
:100EA0000EB50121102001F03AFC40F2E73001902C
:100EB00042F2CF00ADF8000069460C4801F0E7FDB2
:100EC00001210A4802F098FA01221146074802F06F
:100ED0007FFA0121054801F063FE0EBD10B5FFF752
:100EE000CAFFFFF7DDFF10BD0020004000100040EA
:100EF00030B58BB004460D460121022001F020FCE4
:100F00000121042001F0C4FB03220621724801F0F4
:100F1000ACF903220721704801F0A7F90322082148
:100F20006D4801F0A2F9032209216B4801F09DF9F7
:100F30004FF47070099002208DF8280003208DF87E
:100F4000290000208DF82A0001208DF82B0009A926
:100F5000614801F0FFF8A8B2ADF818000020ADF824
:100F60001A000794ADF8200006A95C4801F08FFD37
:100F70006020ADF804000120ADF806000220ADF8B5
:100F800010000020ADF81400039001A9534801F0AF
:100F900013FE01A9514801F048FE01A94F4801F094
:100FA00091FE01A94D4801F0F3FE08214B4801F0E4
:100FB00090FF0821494801F095FF0821474801F0BA
:100FC0009EFF0821454801F0A3FF0121434802F09C
:100FD000D8F90121414801F0C5FD01213F4801F048
:100FE000DFFD00213D4801F040FF00213B4801F0BA
:100FF0003EFF0021394801F03CFF0021374801F055
:101000003AFF0BB030BD30B58BB004460D46012120
:10101000084601F095FB0121084601F039FB012249
:1010200008212F4801F021F9012209212C4801F063
:101030001CF94FF44070099002208DF8280003201D
:101040008DF8290000208DF82A0001208DF82B0052
:1010500009A9234801F07EF8A8B2ADF818000020D5
:10106000ADF81A000794ADF8200006A91D4801F05C
:101070000EFD6020ADF804000120ADF8060002204E
:10108000ADF810000020ADF81400039001A9154838
:1010900001F092FD01A9134801F0C7FD0821114894
:1010A00001F017FF08210F4801F01CFF01210D4836
:1010B00002F067F901210B4801F054FD01210948B4
:1010C00001F06EFD0021074801F0CFFE0021054828
:1010D00001F0CDFE0BB030BD00080240000401401D
:1010E000000002400000014010B500EE100AB8EE0A
:1010F000C00AF6EE000A60EE200A00EE101AB8EE02
:10110000C00A9FED4D1A40EE410A00EE102AB8EEDB
:10111000C00A30EEC00ABDEEC00A10EE103A1BB293
:10112000464C238043429B1A1BB2454C238000EE61
:10113000100AB8EEC00AF6EE000A60EE200A00EED1
:10114000101AB8EEC00A9FED3C1A40EE010A00EEFC
:10115000102AB8EEC00A30EEC00ABDEEC00A10EE8A
:10116000103A1BB2374C2380344BB3F90030364C65
:101170002380344BB3F90030344C238010BD10B5BC
:101180000446B4F5FA5F01DD4FF4FA5414F5FA5F42
:1011900000DA2F4C002C08DB21462E4801F067FEB8
:1011A00000212C4801F061FE07E00021294801F0F0
:1011B0005EFE6142274801F058FE10BD10B504469E
:1011C000B4F5FA5F01DD4FF4FA5414F5FA5F00DA72
:1011D0001F4C002C08DB21461E4801F04AFE00216E
:1011E0001C4801F048FE07E000211A4801F041FECA
:1011F0006142184801F03FFE10BD10B50446B4F539
:10120000FA5F01DD4FF4FA5414F5FA5F00DA104C7E
:10121000002C08DB2146104801F029FE00210E4871
:1012200001F023FE07E000210B4801F020FE61429F
:10123000094801F01AFE10BD2DB25D3F44000020A8
:1012400046000020480000204A0000204C000020FA
:10125000C0E0FFFF000401400000014010B504465B
:10126000AB480088201A00B2AA4908800846B0F9A5
:101270000000A949B1F90010401A00EE100AB8EEBA
:10128000C00AA648D0ED000A20EE200AA44890ED3E
:10129000001AA048B0F9000000EE900AF8EEE00A4B
:1012A00001EE200A9B48B0F900009B49B1F90010FB
:1012B000022202FB11009B49B1F90010084400EE24
:1012C000900AF8EEE00A984890ED001A01EE200A24
:1012D0009648B0F9000000EE900AF8EEE00A30EE11
:1012E000200ABDEEC00A10EE100A00B28F49088035
:1012F0008948B0F900008B4908808648B0F90000A1
:10130000854908808948B0F90000B0F5FA5F03DD2F
:101310004FF4FA50854908808448B0F9000010F570
:10132000FA5F03DA4EF2C000804908807F48B0F9C6
:1013300000007F4908807D48B0F90000FFF71FFFDB
:1013400010BD10B504467B480088201A00B27A49C7
:1013500008800846B0F900007849B1F90010401A39
:1013600000EE100AB8EEC00A7548D0ED000A20EE73
:10137000200A744890ED001A6F48B0F9000000EEA2
:10138000900AF8EEE00A01EE200A6B48B0F900007E
:101390006A49B1F90010022202FB11006A49B1F951
:1013A0000010084400EE900AF8EEE00A674890ED5D
:1013B000001A01EE200A6648B0F9000000EE900A1B
:1013C000F8EEE00A30EE200ABDEEC00A10EE100A78
:1013D00000B25F4908805948B0F900005A490880B6
:1013E0005548B0F90000554908805948B0F9000047
:1013F000B0F5FA5F03DD4FF4FA50554908805448C0
:10140000B0F9000010F5FA5F03DA4EF2C00050495F
:1014100008804F48B0F900004E4908804C48B0F9A8
:101420000000FFF7CBFE10BD10B504464A48008807
:10143000201A00B2494908800846B0F9000048491E
:10144000B1F90010401A00EE100AB8EEC00A454883
:10145000D0ED000A20EE200A434890ED001A3F48E4
:10146000B0F9000000EE900AF8EEE00A01EE200A62
:101470003A48B0F900003A49B1F90010022202FBE3
:1014800011003A49B1F90010084400EE900AF8EE54
:10149000E00A374890ED001A01EE200A3548B0F90D
:1014A000000000EE900AF8EEE00A30EE200ABDEEF1
:1014B000C00A10EE100A00B22E4908802848B0F980
:1014C00000002A4908802548B0F900002449088016
:1014D0002848B0F90000B0F5FA5F03DD4FF4FA5088
:1014E000244908802348B0F9000010F5FA5F03DAB8
:1014F0004EF2C0001F4908801E48B0F900001E4986
:1015000008801C48B0F90000FFF777FE10BD00000E
:1015100040000020660000206800002058000020E5
:101520005C0000206A0000206000002064000020B1
:10153000500000203C0000207A0000207C000020A9
:101540006C000020700000207E000020740000204D
:101550007800002052000020380000208E0000207B
:1015600090000020800000208400002092000020D5
:10157000880000208C0000205400002000210F4A29
:10158000116800BF0A180D4B1B689A42FAD87047C1
:1015900010B502460BE00A2007E00A2101E04B1ECD
:1015A000D9B20029FBDC431ED8B20028F5DC131E9B
:1015B000A2F10104A2B2EED110BD000094000020FF
:1015C00002480068401C01490860704794000020F0
:1015D00008B54FF4A06000F0C7FC35208DF800007E
:1015E00001208DF801008DF802008DF80300684697
:1015F00000F0BFFC08BD00B587B001210C2001F050
:1016000047F80121080501F08AF800208DF81A003A
:1016100001208DF81B0002208DF819008DF81800AC
:10162000C002059005A94B4800F094FD02208DF8FA
:1016300018000420059005A9474800F08BFD0822FA
:101640000C21444800F011FE08220221424800F01B
:101650000CFE4FF4E13001900020ADF80800ADF829
:101660000A00ADF80C00ADF810000C20ADF80E002B
:1016700001A93A4802F017F8FFF7AAFF012240F249
:101680002551364802F04DF90121344802F093F813
:1016900007B000BD70B504460D462946204602F04D
:1016A000B5F800BF8021204602F060F90028F9D08B
:1016B00070BD70B506460C46002500BF615D304622
:1016C000FFF7E8FF6D1C605D0028F7D100BF4021E7
:1016D000304602F04BF90028F9D070BD2DE9F041F9
:1016E00005460C46260AE7B23146284602F08EF837
:1016F00000BF8021284602F039F90028F9D0394688
:10170000284602F083F800BF8021284602F02EF917
:101710000028F9D0BDE8F08170B504460D46E1B26D
:101720000E4802F073F800BF80210C4802F01EF949
:101730000028F9D0204670BD10B5044600BF202116
:10174000064802F013F90028F9D0044802F062F8C4
:1017500010BD000000080240000C02400050004094
:10176000002001E0411CC8B2FA28FBDB704710B52D
:101770004FF40061FB4800F069FD4FF48061F948C7
:1017800000F064FDFFF7ECFF4FF40061F54800F056
:101790005FFDFFF7E5FF4FF48061F24800F058FD70
:1017A000FFF7DEFF10BD10B54FF40061ED4800F00B
:1017B0004FFD4FF48061EB4800F048FDFFF7D0FF8C
:1017C0004FF40061E74800F041FD10BD70B50446DC
:1017D000002528E004F0800028B14FF40061E148C2
:1017E00000F034FD04E04FF40061DE4800F030FD0D
:1017F000FFF7B6FF4FF48061DA4800F027FDFFF7EE
:10180000AFFF4FF48061D74800F022FD072D04D1CF
:101810004FF40061D34800F019FD6006040EFFF795
:101820009FFF681CC5B2082DD4DB70BD70B50024C5
:10183000002519E06006040E4FF48061C94800F0ED
:1018400005FDFFF78DFF4FF40061C64800F0E4FC92
:1018500008B1601CC4B24FF48061C24800F0F8FCCB
:10186000FFF77EFF681CC5B2082DE3DB204670BD84
:1018700010B54FF40061BB4800F0E8FCFFF770FFC3
:101880004FF48061B74800F0E1FCFFF769FF4FF4C7
:101890000061B44800F0C0FC08B1012400E000245D
:1018A0004FF48061AF4800F0D3FCFFF759FF2046AA
:1018B00010BD10B54FF40061AA4800F0C9FCFFF755
:1018C0004FFF4FF48061A74800F0C0FCFFF748FFCE
:1018D0004FF48061A34800F0BBFCFFF741FF4FF4D9
:1018E0000061A04800F0B2FC10BD10B54FF40061DB
:1018F0009C4800F0ABFCFFF733FF4FF48061994840
:1019000000F0A4FCFFF72CFF4FF48061954800F035
:101910009FFCFFF725FF10BD1CB50121022000F040
:10192000B7FE4FF44060009000208DF805000120C4
:101930008DF804008DF8060000208DF80700694638
:10194000884800F007FCFFF72EFF1CBD70B5044669
:10195000FFF70DFF2046FFF739FFFFF789FF054628
:10196000FFF721FF284670BD70B505460C46FFF70E
:10197000FEFE7820FFF72AFFFFF77AFF00B110E0A4
:101980002846FFF723FFFFF773FF00B109E0204669
:10199000FFF71CFFFFF76CFF00B102E0FFF703FF4A
:1019A00000BFFFF700FF70BD10B5044621460020C0
:1019B000FFF7DAFF10BD10B5044621464020FFF7BF
:1019C000D3FF10BD10B54FF47A70FFF7D7FDAE20EE
:1019D000FFF7EAFF2020FFF7E7FF1020FFF7E4FF03
:1019E000B020FFF7E1FFC820FFF7DEFF0020FFF780
:1019F000DBFF1020FFF7D8FF4020FFF7D5FF812045
:101A0000FFF7D2FFFF20FFF7CFFFA120FFF7CCFFAA
:101A1000A620FFF7C9FFA820FFF7C6FF3F20FFF76A
:101A2000C3FFA420FFF7C0FFD320FFF7BDFF0020B6
:101A3000FFF7BAFFD520FFF7B7FFF020FFF7B4FF9D
:101A4000D920FFF7B1FF2220FFF7AEFFDA20FFF722
:101A5000ABFF1220FFF7A8FFDB20FFF7A5FF202038
:101A6000FFF7A2FF8D20FFF79FFF1420FFF79CFFD9
:101A7000AF20FFF799FF10BD70B504460D4605F184
:101A8000B001C8B2FFF790FF102141EA1410FFF730
:101A90008BFF04F00F0141F00100FFF785FF70BDDF
:101AA00070B50646002415E004F1B001C8B2FFF796
:101AB0007BFF0020FFF778FF1020FFF775FF002560
:101AC00004E03046FFF777FF681CC5B2802DF8DBD5
:101AD000601CC4B2082CE7DB70BD10B50020FFF716
:101AE000DFFF10BD10B58D20FFF75EFF1420FFF75C
:101AF0005BFFAF20FFF758FF10BD10B58D20FFF73B
:101B000053FF1020FFF750FFAE20FFF74DFF10BD31
:101B10002DE9F04707460E469046994600250024D9
:101B2000A8F12000C5B27F2F02DD0027B01CC6B28D
:101B3000B9F1100F26D131463846FFF79DFF00243A
:101B400007E004EB0511084A505CFFF734FF601C06
:101B5000C4B2082CF5DB701CC1B23846FFF78CFF0D
:101B600000240CE000040240183D000804EB0511BD
:101B70000831A54A505CFFF71EFF601CC4B2082C58
:101B8000F4DB11E031463846FFF776FF002409E028
:101B900005EB45019D4A02EB4101085DFFF70BFF94
:101BA000601CC4B2062CF3DBBDE8F08710B502461A
:101BB000012000E050430B1EA1F10104E1B2F9D174
:101BC00010BD2DE9FF5F074691461E460E9D4FF062
:101BD000000A002435E0301B401EC1B20A20FFF786
:101BE000E5FFB9FBF0F00A21B0FBF1F201FB1208AE
:101BF000BAF1000F14D1701EA04211DDB8F1000F30
:101C00000CD1AB4605EBDB71491001FB0471C8B286
:101C10002B4620220199FFF77BFF10E04FF0010ACD
:101C2000AB4605EBDB71491001FB0471C8B208F14A
:101C30003001CAB22B460199FFF76AFF00BF601C52
:101C4000C4B2B442C7DBBDE8FF9F2DE9F0470646AA
:101C5000894617469A464FF0000800240025BAF13D
:101C6000010F03D0BAF1020F5ED125E020E0785DCC
:101C7000203800F0FF087E2E04DD002609F1010067
:101C800000F0FF0949463046FFF7F6FE002409E060
:101C900008EB48015D4A02EB4101085DFFF78BFE4E
:101CA000601CC4B2062CF3DBB01DC6B2681CC5B202
:101CB000785D0028DBD137E032E0785D203800F035
:101CC000FF08782E04DD002609F1010000F0FF096D
:101CD00049463046FFF7D0FE002407E004EB081128
:101CE000494A505CFFF767FE601CC4B2082CF5DB64
:101CF00009F10100C1B23046FFF7BEFE002408E042
:101D000004EB08110831404A505CFFF754FE601C98
:101D1000C4B2082CF4DB06F10800C6B2681CC5B2D8
:101D2000785D0028C9D100BF00BFBDE8F0872DE96C
:101D3000F04180460E46174600247D01314640465C
:101D4000FFF79AFE00BF06E03149485DFFF733FE1A
:101D50006D1C601CC4B2102CF6DB701CC1B2404676
:101D6000FFF78AFE002406E02949485DFFF723FEBD
:101D70006D1C601CC4B2102CF6DBBDE8F0812DE9AF
:101D8000F05F06460F4690461C46DDF828A04FF04F
:101D9000000BE11704EB5171C910A4EBC10131B97B
:101DA0002046E11704EB5171C1F3C70506E0204658
:101DB000E11704EB5171C910491CCDB23D4614E046
:101DC00029463046FFF758FEB1460AE059460BF166
:101DD000010B1AF80100FFF7EEFD09F1010000F018
:101DE000FF09C145F2DB681CC5B2A542E8DBBDE8CE
:101DF000F09F10B57820FFF7A9FD012801D1002040
:101E000010BD0120FCE70000183D0008F03A000872
:101E10009800002030B5254800684FF47A72B0FB76
:101E2000F2F1481EB0F1807F01D301201BE0481E73
:101E30004FF0E022506150170F22002807DA1307F5
:101E40001D0E1B4B00F00F04241F1D5503E013074C
:101E50001C0E184B1C5400BF00204FF0E022906174
:101E600007201061002008B100BFFEE730BD01B5BA
:101E700011490098086000BF0F4800680028FBD196
:101E800008BD10B50246002404E04FF47A70FFF755
:101E9000EEFF521E9442F8D310BD0748006820B1EF
:101EA00005480068401E044908607047240000206F
:101EB00018ED00E000E400E0180500201CB5012149
:101EC000042000F0E5FB0121022000F0E1FB1020DE
:101ED000009000208DF8040003208DF805000120FB
:101EE0008DF8070069461E4800F034F92020009064
:101EF00000208DF8040003208DF8050001208DF8E6
:101F000007006946164800F025F9012000900020DE
:101F10008DF8040003208DF8050001208DF80700DE
:101F20006946104800F016F90220009000208DF854
:101F3000040003208DF8050001208DF80700694694
:101F4000084800F007F91CBD70B504460D46294647
:101F5000204600F061F908B9002070BD0120FCE7BF
:101F6000000802400004024032490143324A116035
:101F7000704770B5002100230F22C4781CB32E4C8B
:101F8000246804F4E064C4F5E064C4F30721C1F1FB
:101F90000404E3B20A4144789C40E1B284781440DE
:101FA00021430C07210E254C05786155047804F077
:101FB0001F050124AC4005786D11AD0005F1E02549
:101FC000C5F8004109E0047804F01F050124AC4085
:101FD0001B4D0678761145F8264070BD194A0A4017
:101FE0000243154B1B1F1A60704739B1124A121D6C
:101FF00012680243104B1B1D1A6006E00E4A121DA8
:10200000126882430C4B1B1D1A607047042808D1CC
:102010004FF0E021096941F004014FF0E022116125
:1020200007E04FF0E021096921F004014FF0E022C0
:10203000116170470000FA050CED00E000E400E0DB
:1020400080E100E080FFFF1F10B5044698488442FD
:1020500008D10121084600F084FB0021012000F096
:1020600080FB76E09348844208D10121022000F0F1
:1020700078FB0021022000F074FB6AE08E48844265
:1020800008D10121042000F06CFB0021042000F0A5
:1020900068FB5EE08948844208D10121082000F0F5
:1020A00060FB0021082000F05CFB52E08448844281
:1020B00008D10121102000F054FB0021102000F075
:1020C00050FB46E07F48844208D10121202000F0E7
:1020D00048FB0021202000F044FB3AE07A4884428B
:1020E00008D10121402000F03CFB0021402000F0FD
:1020F00038FB2EE07548844208D10121802000F091
:1021000030FB0021802000F02CFB22E0704884424C
:1021100008D10121801500F024FB0021A01500F05A
:1021200020FB16E06B48844208D10121401500F0E5
:1021300018FB0021601500F014FB0AE06648844299
:1021400007D10121001500F00CFB0021201500F043
:1021500008FB10BDF0B50A4600210023002400BF93
:102160003DE0012505FA01F3156805EA03049C42E8
:1021700034D105684F000326BE40B543056015798C
:102180004E00B5400668354305601579012D02D033
:102190001579022D16D185684F000326BE40B54340
:1021A000856055794E00B540866835438560456841
:1021B00001268E40B5434560456896798E40B6B29B
:1021C00035434560C5684F000326BE40B543C56032
:1021D000D5794E00B540C6683543C560491C102905
:1021E000BFD3F0BD4FF6FF71016000210171417155
:1021F0008171C171704708B54FF480320092009A26
:102200000A430092009AC261C161009AC261C26928
:102210000092C269009208BD0246002013690B407B
:102220000BB1012000E0002070470146086980B230
:1022300070470246002053690B400BB1012000E0BB
:10224000002070470146486980B27047018370479B
:10225000418370470AB1018300E0418370474161C7
:10226000704742694A4042617047F0B5002300243C
:102270004D07ED0E02FA05F3CE1000F1200555F8DA
:1022800026504E07F70E0F26BE40B543CF1000F183
:10229000200646F82750CE1000F1200555F82650AC
:1022A00045EA0304CE1000F1200545F82640F0BDB4
:1022B000000002400004024000080240000C0240FE
:1022C000001002400014024000180240001C0240AE
:1022D000002002400024024000280240F948006823
:1022E00040F00100F74908600020F6490831086015
:1022F000F4480068F4490840F2490860F348091DB1
:102300000860F348EF4984310860F0481038091D2F
:102310000860EC48006820F48020EA49086000204A
:10232000E8490C310860E7498C31086070470021AA
:10233000E44A921C117011460870704710B50146AE
:102340000022002300204A11012A02D1DD4C23681B
:1023500008E0022A03D1DB4C7034236802E0D94C38
:102360007434236801F01F02012494401C400CB116
:10237000012000E0002010BD38B5002000900024AE
:10238000002500BF3120FFF7D9FF05460098401C0B
:1023900000900098B0F5A04F01D0002DF2D0312070
:1023A000FFF7CCFF08B1012400E00024204638BD2F
:1023B00001460020C34A106820F0F80040EAC1003E
:1023C00010607047C349086070470021BD4A7032F1
:1023D00011701170012802D004280AD104E00121F3
:1023E000B84A7032117005E00521B64A703211709A
:1023F00000E000BF00BF7047B7490860704770B584
:10240000049C41EA82150126C6EB530645EA0645BF
:10241000054345EA0465AB4E361D356070BDAD49D8
:1024200008667047820142EA0172A64B84331A6043
:102430007047A8498866704710B5830143EA016375
:1024400043EA02739F4C8834236010BDA14908679A
:102450007047A049C864704702460020994B083372
:10246000186820F0EC6042EA01031843954B0833EA
:102470001860704702460020924B0833186820F01D
:10248000784042EA010318438E4B083318607047C6
:10249000014600208B4A0832106820F003000843F0
:1024A0001060704787480830006800F00C007047E3
:1024B00001460020834A0832106820F0F0000843EB
:1024C00010607047014600207E4A0832106820F4F0
:1024D000E05008431060704701460020794A0832F6
:1024E000106820F4604040EAC10010607047F0B509
:1024F000002100220024022500260223714F083704
:102500003F6807F00C0121B1042905D0082937D113
:1025100005E0724F076036E0704F076033E0694FA7
:102520003F1D3F68C7F38056664F3F1D3F6807F069
:102530003F036EB1694FB7FBF3F7DFF888C10CF1C9
:10254000040CDCF800C0CCF3881C07FB0CF40CE096
:10255000624FB7FBF3F7DFF86CC10CF1040CDCF849
:1025600000C0CCF3881C07FB0CF4564F3F1D3F689E
:10257000C7F301477F1C7D00B4FBF5F7076002E05D
:10258000564F076000BF00BF4E4F08373F6807F047
:10259000F0010909524F7A5C0768D7404760494FFC
:1025A00008373F6807F4E051890A4D4F7A5C476865
:1025B000D7408760434F08373F6807F46041490BB5
:1025C000474F7A5C4768D740C760F0BD002100F4F0
:1025D0004072B2F5407F0AD13A4A0832116821F4BC
:1025E000F811404A02401143364A08321160354A18
:1025F00070321268C0F30B031A43324B70331A6007
:10260000704735494439086070473349403908609C
:10261000704735490860704701460020294A8C32CE
:10262000106820F01F004A1E1043264A8C321060AA
:10263000704701460020234A8C32106820F4F8507D
:102640004A1E40EA02201F4A8C3210607047014641
:1026500000201C4A8C32106820F44010084310609F
:10266000704701460020174A8C32106820F4400061
:1026700008431060704701460020124A8C321068EF
:1026800020F44030084310607047184908607047D4
:1026900039B10C4A3032126802430A4B30331A60A7
:1026A00006E0084A303212688243064B30331A6023
:1026B0007047E9B1034A343212680243014B3433A4
:1026C0001A601AE000380240FFFFF6EA10300024DA
:1026D0000030002000004742800E47420024F400F2
:1026E0001C050020FFFCFF0F5C014742E011474240
:1026F0008F4A126882438E4B1A60704739B18C4AF8
:10270000121D126802438A4B1B1D1A6006E0884A9C
:10271000121D12688243864B1B1D1A60704739B127
:10272000834A0C3212680243814B0C331A6006E074
:102730007F4A0C32126882437D4B0C331A6070471B
:1027400039B17B4A103212680243794B10331A6058
:1027500006E0774A103212688243754B10331A60D4
:10276000704739B1724A243A12680243704B243BD5
:102770001A6006E06E4A243A126882436C4B243B8E
:102780001A60704739B16A4A203A12680243684BAE
:10279000203B1A6006E0664A203A12688243644B86
:1027A000203B1A60704739B1614A1C3A12680243F3
:1027B0005F4B1C3B1A6006E05D4A1C3A126882437C
:1027C0005B4B1C3B1A60704739B1594A143A126886
:1027D0000243574B143B1A6006E0554A143A1268FC
:1027E0008243534B143B1A60704739B1504A103A38
:1027F000126802434E4B103B1A6006E04C4A103AF6
:10280000126882434A4B103B1A60704739B1484AFC
:102810001C3212680243464B1C331A6006E0444ADD
:102820001C3212688243424B1C331A60704739B124
:102830003F4A2032126802433D4B20331A6006E0C3
:102840003B4A203212688243394B20331A6070476A
:1028500039B1374A243212680243354B24331A60A7
:1028600006E0334A243212688243314B24331A6023
:10287000704739B12E4A2C32126802432C4B2C334C
:102880001A6006E02A4A2C3212688243284B2C3305
:102890001A60704739B1264A303212680243244B1D
:1028A00030331A6006E0224A303212688243204BED
:1028B00030331A607047012808D11D493C3109683E
:1028C00041F008011A4A3C32116007E018493C31D6
:1028D000096821F00801164A3C321160704739B18D
:1028E000134A273A12780243114B273B1A7006E02D
:1028F0000F4A273A127882430D4B273B1A707047D4
:102900000B484030006840F0807009494031086051
:10291000704701460020064A283A12680A400AB168
:10292000012000E0002070470149263908707047F7
:102930003438024010B50446FE48844208D10121D3
:102940000846FFF752FF00210120FFF74EFF9DE0F0
:10295000B4F1804F08D101210846FFF735FF00216F
:102960000120FFF731FF91E0F348844208D10121B3
:102970000220FFF729FF00210220FFF725FF85E055
:10298000EE48844208D101210420FFF71DFF0021F9
:102990000420FFF719FF79E0E948844208D10121BA
:1029A0000820FFF711FF00210820FFF70DFF6DE061
:1029B000E448844208D101211020FFF705FF0021DF
:1029C0001020FFF701FF61E0DF48844208D10121B8
:1029D0002020FFF7F9FE00212020FFF7F5FE55E04B
:1029E000DA48844208D101210220FFF7FEFE0021CF
:1029F0000220FFF7FAFE49E0D548844209D10121BF
:102A00000804FFF7F2FE00214FF48030FFF7EDFEDF
:102A10003CE0D048844209D101214804FFF7E5FE9B
:102A200000214FF40030FFF7E0FE2FE0CA48844257
:102A300009D101218804FFF7D8FE00214FF480203E
:102A4000FFF7D3FE22E0C548844208D1012140208F
:102A5000FFF7BAFE00214020FFF7B6FE16E0C0489F
:102A6000844208D101218020FFF7AEFE00218020A2
:102A7000FFF7AAFE0AE0BB48844207D10121801576
:102A8000FFF7A2FE0021A015FFF79EFE10BD002259
:102A90000288A84B98420ED0AC4B98420BD0B0F1B4
:102AA000804F08D0A44B984205D0A44B984202D046
:102AB000A34B984204D14FF68F731A404B881A43A8
:102AC000A04B984207D0A04B984204D04FF6FF434A
:102AD0001A400B891A4302804B68C3620B88038536
:102AE000944B984202D0994B984201D18B7A03863D
:102AF0000123838270474FF0FF3141600021018044
:102B000001814180817270470185828270470A4647
:102B1000002101884FF68F731940114301807047DF
:102B200041627047C16270470146486A704701467A
:102B3000088D704721B1028842F00202028004E051
:102B400002884FF6FD731A400280704721B1028857
:102B500042F00402028004E002884FF6FB731A4040
:102B60000280704721B1028842F08002028004E0B6
:102B700002884FF67F731A400280704702884FF632
:102B8000F7731A40028002880A4302807047028865
:102B90004FF6FF431A40028002880A4302807047C2
:102BA00021B1028842F00102028004E002884FF65F
:102BB000FE731A400280704770B500240022002383
:102BC000058C4FF6FE7635400584028C8388048B95
:102BD0004FF68F752C40B51E2C400D882C43751E6A
:102BE0002A408D892A434D882A43524DA84202D05B
:102BF000564DA84213D14FF6F7752A40CD892A4386
:102C00004FF6FB752A408D882A434FF6FF652B400F
:102C10004FF6FF552B400D8A2B434D8A2B43838063
:102C200004838D684563028470BD70B50024002262
:102C30000023058C4FF6EF7635400584028C83889F
:102C4000048B48F6FF752C404FF6FF452C400D884D
:102C50004FF6FF7606EA05252C434FF6DF752A402E
:102C60008D8906EA05152A434D8806EA05152A438B
:102C7000304DA84202D0354DA8421DD14FF67F7588
:102C80002A40CD894FF6FF7606EA05152A434FF60E
:102C9000BF752A408D8806EA05152A434FF6FF3591
:102CA0002B404FF2FF752B400D8A06EA85052B431A
:102CB0004D8A06EA85052B43838004838D688563EE
:102CC000028470BD70B5002400220023058C4FF6ED
:102CD000FF6635400584028C8388848B4FF68F75A0
:102CE0002C404FF6FC752C400D882C434FF6FF55B9
:102CF0002A408D894FF6FF7606EA05252A434D883E
:102D000006EA05252A430B4DA84202D00F4DA842E2
:102D100038D14FF2FF752A40CD894FF6FF7606EA8B
:102D200005252A434FF6FF352A408D8806EA0525FA
:102D30002A4319E000000140000400400008004060
:102D4000000C00400010004000140040000401404E
:102D5000004001400044014000480140001800408C
:102D6000001C0040002000404EF6FF752B404DF641
:102D7000FF752B400D8A06EA05152B434D8A06EA9E
:102D800005152B43838084838D68C563028470BDE1
:102D900070B5002200230024058C4EF6FF763540E6
:102DA0000584038C8488828B48F6FF752A404FF691
:102DB000FF452A400D884FF6FF7606EA05252A438F
:102DC0004DF6FF752B408D8906EA05352B434D885E
:102DD00006EA05352B43FE4DA84202D0FD4DA84220
:102DE00008D14BF6FF752C400D8A4FF6FF7606EAA8
:102DF00085152C43848082838D680564038470BDAF
:102E0000002101804180818081608181C1810182B6
:102E10004182704770B503460020002418461830E0
:102E200001258D40ACB21D8CA5431D8409B1082934
:102E30000AD100EB610005684FF68F7635400560DA
:102E40000568154305600FE00D1FC5F34E052844C6
:102E5000056848F6FF763540056005684FF6FF7651
:102E600006EA02263543056070BD41637047816301
:102E70007047C1637047016470470A460021018BA7
:102E80004FF68F7319401143018370470A460021A2
:102E9000018B48F6FF7319404FF6FF7303EA0223D4
:102EA0001943018370470A460021818B4FF68F73C7
:102EB00019401143818370470A460021818B48F6EF
:102EC000FF7319404FF6FF7303EA0223194381830E
:102ED00070470A460021018B4FF6F77319401143E2
:102EE000018370470A460021018B4FF2FF7319409E
:102EF0004FF6FF7303EA02231943018370470A4622
:102F00000021818B4FF6F77319401143818370477D
:102F10000A460021818B4FF2FF7319404FF6FF7371
:102F200003EA02231943818370470A460021018B7B
:102F30004FF6FB7319401143018370470A46002185
:102F4000018B4FF6FF3319404FF6FF7303EA02235C
:102F50001943018370470A460021818B4FF6FB73AA
:102F600019401143818370470A460021818B4FF637
:102F7000FF3319404FF6FF7303EA0223194381839D
:102F800070470A460021018B4FF67F7319401143A9
:102F9000018370470A460021018BC1F30E014FF6F1
:102FA000FF7303EA02231943018370470A46002195
:102FB000818B4FF67F7319401143818370470A4616
:102FC0000021818BC1F30E014FF6FF7303EA022348
:102FD0001943818370470A460021018C4FF6FD7327
:102FE00019401143018470470A460021018C4FF6B5
:102FF000F77319401143018470470A460021018C80
:103000004FF6DF7319404FF6FF7303EA02131943BB
:10301000018470470A460021018C4FF67F731940E6
:103020004FF6FF7303EA02131943018470470A46FF
:103030000021018C4FF6FF5319404FF6FF7303EA4E
:1030400002231943018470470A460021018C4FF284
:10305000FF7319404FF6FF7303EA022319430184FB
:1030600070470A460021018C4DF6FF7319404FF658
:10307000FF7303EA023319430184704730B500231C
:1030800001248C40A3B2048C9C430484048C02FA77
:1030900001F5ADB22C43048430BD30B500230424C7
:1030A0008C40A3B2048C9C430484048C02FA01F586
:1030B000ADB22C43048430BD828B4FF2FF331A40F3
:1030C0008283828B4FF6FF7303EA01231A438283C4
:1030D0007047F0B50C461546002100220026078CEB
:1030E0004EF6FF7C07EA0C070784818B028C4FF6B3
:1030F000FF7707EA043640F6FF4739404FF6FF777F
:1031000007EA052739434FF6FF7707EA03373943C4
:1031100045F6FF773A4046F480573A43818302846C
:10312000F0BD828B4FF6F3731A408283828B0A4381
:1031300082837047F0B50C46154600210022002618
:10314000078C4FF6FF6C07EA0C070784818B028C13
:103150004FF6FF7707EA04264FF60C7739404FF613
:10316000FF7707EA03172F4339434FF2FF573A40DF
:1031700046F480773A4381830284F0BD028B4FF29C
:10318000FF331A400283028B4FF6FF7303EA0123D9
:103190001A4302837047F0B50C4615460021002201
:1031A0000026078C4FF6EF7C07EA0C070784018B9B
:1031B000028C4FF6FF7707EA041640F6FF473940C6
:1031C0004FF6FF7707EA033739434FF6FF7703E0FF
:1031D000000001400004014007EA052739434FF68B
:1031E0005F773A4046F010073A4301830284F0BD0E
:1031F000028B4FF6F3731A400283028B0A43028359
:103200007047F0B50C46154600210022068C4FF69B
:10321000FE773E400684018B028C4FF60C763140DF
:103220007E1C06EA03162E4331434FF6F5763240F4
:1032300044F00106324301830284F0BD70B50546B7
:103240000C46208850B92389A28861882846FFF758
:10325000D8FFE1882846FFF7CBFF25E02088042827
:103260000AD12389A28861882846FFF794FFE18864
:103270002846FFF783FF17E0208808280AD1238912
:10328000A28861882846FFF755FFE1882846FFF7A6
:1032900048FF09E02389A28861882846FFF719FFC3
:1032A000E1882846FFF708FF70BD002101804180BA
:1032B000012181800021C180018170472DE9F04109
:1032C00005460C4600260127608808B9022600E062
:1032D0000026A088012801D1022700E001272088CC
:1032E000A0B92389A28861882846FFF78AFFE18870
:1032F0002846FFF77DFF23893A4631462846FFF7E7
:103300004AFFE1882846FFF739FF13E02389A288A6
:1033100061882846FFF73FFFE1882846FFF72EFF28
:1033200023893A4631462846FFF76BFFE188284655
:10333000FFF75EFFBDE8F0810146486B704701462C
:10334000886B70470146C86B70470146086C704730
:103350000A884B881A438B881A43CB881A430B89F7
:103360001A434B891A438B891A43A0F844207047AB
:103370000021018041808180C18001814181818162
:10338000704731B1B0F8442042F40042A0F8442024
:1033900005E0B0F84420C2F30E02A0F844207047C4
:1033A00021B1828842F00402828004E082884FF6D4
:1033B000FB731A408280704721B1828842F001027B
:1033C000828004E082884FF6FE731A408280704744
:1033D0001AB183890B43838102E083898B43838104
:1033E00070478182704702460020138A0B400BB160
:1033F000012000E000207047CA430282704730B5C8
:103400000246002000230024158A05EA010395895D
:1034100005EA010413B10CB1012000E0002030BD29
:10342000CA430282704741EA0203A0F8483070475D
:103430001AB183890B43838102E083898B438381A3
:10344000704721B1828842F00802828004E08288BD
:103450004FF6F7731A408280704701894FF6F87271
:103460001140018170470A46002101894FF68F7390
:10347000194011430181704730B504460D46294675
:103480002046FFF7F0FF208940F00700208130BD83
:103490002DE9F04104460D4616461F46602D06D123
:1034A0003B46012231462046FFF775FE05E03B46CC
:1034B000012231462046FFF7A4FE29462046FFF7A9
:1034C000D2FF208940F007002081BDE8F08130B5AF
:1034D0000C4600210189C9B24FF6FF7505EA0325A4
:1034E000154325432943018130BD2DE9F0410546AF
:1034F0000E4617469846002443463A46314628462B
:10350000FFF7E5FF2C894FF6F870044044F00704FC
:103510004FF68F70044044F070042C81BDE8F081B8
:10352000F0B504460D4616461F463B463246294630
:103530002046FFF7CCFF208940F480402081F0BD79
:1035400082884FF68F731A40828082880A43828075
:10355000704702894FF6F8731A40028102890A43C4
:103560000281704702894FF67F731A4002810289F7
:103570000A4302817047F0B50C4615461E460021ED
:10358000002200230189028B038C4FF6F877394023
:1035900021434FF6FC473A4040F201173A434FF6B9
:1035A000DD773B404FF6FF7707EA06172F433B4393
:1035B000018102830384F0BD21B1828842F0800240
:1035C000828004E082884FF67F731A4082807047C1
:1035D000A0F850107047000010B50446FA48844225
:1035E00008D101211020FFF700F900211020FFF77A
:1035F000FCF857E0F548844209D101214804FFF75F
:10360000E3F800214FF40030FFF7DEF84AE0F0481D
:10361000844209D101218804FFF7D6F800214FF434
:103620008020FFF7D1F83DE0EA48844209D101212A
:10363000C804FFF7C9F800214FF40020FFF7C4F8D1
:1036400030E0E548844209D101210805FFF7BCF8C4
:1036500000214FF48010FFF7B7F823E0DF488442E1
:1036600008D101212020FFF7C0F800212020FFF71A
:10367000BCF817E0DA48844209D101218807FFF736
:10368000A3F800214FF08040FFF79EF80AE0D548EC
:10369000844207D101214005FFF796F8002160051B
:1036A000FFF792F810BD2DE9FF4705460E460024AE
:1036B000A14600BFA046B08900B100BF2C8A24F407
:1036C0004054F08804432C82AC8941F20C6084435E
:1036D000B08831890843718908430443AC81AC8ABE
:1036E00024F44074B0890443AC826846FEF7FFFEC0
:1036F000B548854202D0B948854202D1DDF80C9028
:1037000001E0DDF80890A88900F4004040B109EB21
:10371000C90000EB091031684900B0FBF1F707E080
:1037200009EBC90000EB091031688900B0FBF1F723
:103730006420B7FBF0F004012009642101FB10783C
:10374000A88900F4004040B1322000EBC800B0FB73
:10375000F1F000F00700044308E0322000EB08100D
:103760006421B0FBF1F000F00F0004432C81BDE8B0
:10377000FF874FF41651016000218180C1800181D3
:103780000C21418100218181704710B50246002043
:10379000108A20F470600B884C8823438C88234364
:1037A000CC8823431843108210BD00210180418042
:1037B0008180C180704721B1828942F400528281A8
:1037C00004E082894DF6FF731A4082817047028BB4
:1037D00002F47F420283028B0A430283704721B1C5
:1037E000828942F40042828103E08289C2F30E02A0
:1037F0008281704721B1828A42F40062828204E0B1
:10380000828A4FF2FF731A4082827047C1F3080226
:103810008280704701468888C0F308007047028A9A
:103820004FF6F0731A400282028A0A4302827047FE
:1038300021B1828942F00202828104E082894FF63E
:10384000FD731A408281704782894FF2FF731A40DC
:10385000828182890A4382817047028A4FF6DF7330
:103860001A400282028A0A430282704721B1028A08
:1038700042F48042028204E0028A4BF6FF731A404F
:1038800002827047818941F001018181704721B135
:10389000828A42F00802828204E0828A4FF6F7733D
:1038A0001A4082827047028BD2B20283028B42EAB4
:1038B00001220283704721B1828A42F02002828273
:1038C00004E0828A4FF6DF731A408282704721B18A
:1038D000828A42F01002828204E0828A4FF6EF73FD
:1038E0001A4082827047828A4FF6FB731A408282A6
:1038F000828A0A438282704721B1828A42F00202A0
:10390000828204E0828A4FF6FD731A4082827047F9
:103910001AB1838A0B43838202E0838A8B438382BA
:103920007047F0B50346002400260025002040F62D
:103930006A17B94200D100BF1846C1F3421401F022
:103940001F06012707FA06F5012C01D10C3004E00F
:10395000022C01D1103000E014301AB107682F4357
:10396000076002E00768AF430760F0BD0246002031
:10397000B1F5007F00D100BF13880B400BB10120CF
:1039800000E00020704701F40072B2F5007F00D122
:1039900000BFCA430280704770B50246002400236E
:1039A0000025002040F66A16B14200D100BFC1F3E5
:1039B000421501F01F03012606FA03F3012D13D16E
:1039C0009689334017E00000001001400044004099
:1039D00000480040004C00400050004000140140EE
:1039E00000780040007C0040022D02D1168A33404E
:1039F00001E0968A33400C12012606FA04F4168878
:103A0000344013B10CB1012000E0002070BD10B5AE
:103A10000022002340F66A14A14200D100BF0A121E
:103A200001249440A3B2DC43048010BD09488047C0
:103A300009480047FEE7FEE7FEE7FEE7FEE7FEE790
:103A4000FEE7FEE7FEE7FEE704480549054A064BA8
:103A500070470000D5090008890100089005002082
:103A6000900B0020900700209007002070477047BF
:103A70007047754600F02CF8AE460500694653467F
:103A800020F00700854618B020B5FFF7DDFFBDE840
:103A900020404FF000064FF000074FF000084FF0B5
:103AA000000B21F00701AC46ACE8C009ACE8C00946
:103AB000ACE8C009ACE8C0098D46704710B50446B3
:103AC000AFF300802046BDE81040FCF7C6BB000005
:103AD000004870472C05002001491820ABBEFEE7C6
:103AE0002600020070474FF04070E1EE100A704768
:103AF0000000000000000000002F00000000070090
:103B0000070000147F147F1400242A7F2A12006209
:103B100064081323003649552250000005030000B5
:103B200000001C224100000041221C000014083E3D
:103B300008140008083E0808000000A06000000803
:103B40000808080800006060000000201008040257
:103B5000003E5149453E0000427F40000042615115
:103B60004946002141454B31001814127F100027AF
:103B700045454539003C4A49493000017109050372
:103B800000364949493600064949291E00003636A3
:103B90000000000056360000000814224100001406
:103BA00014141414000041221408000201510906E3
:103BB00000324959513E007C1211127C007F494964
:103BC0004936003E41414122007F4141221C007F95
:103BD00049494941007F09090901003E4149497AA3
:103BE000007F0808087F0000417F4100002040411D
:103BF0003F01007F08142241007F40404040007F89
:103C0000020C027F007F0408107F003E4141413ECC
:103C1000007F09090906003E4151215E007F091914
:103C200029460046494949310001017F0101003F11
:103C30004040403F001F2040201F003F4038403F91
:103C400000631408146300070870080700615149F5
:103C5000454300007F41410000552A552A55000088
:103C600041417F0000040201020400404040404006
:103C7000000001020400002054545478007F48449E
:103C8000443800384444442000384444487F0038D5
:103C90005454541800087E0901020018A4A4A47CFE
:103CA000007F080404780000447D400000408084C8
:103CB0007D00007F102844000000417F4000007C10
:103CC00004180478007C080404780038444444381C
:103CD00000FC242424180018242418FC007C080468
:103CE000040800485454542000043F444020003C41
:103CF0004040207C001C2040201C003C4030403CC8
:103D0000004428102844001CA0A0A07C0044645457
:103D10004C4414141414141400000000000000009B
:103D20000000000000000000000000F8000000009B
:103D3000000000333000000000100C06100C0600DC
:103D4000000000000000000040C07840C078400043
:103D5000043F04043F040400007088FC08300000A5
:103D6000001820FF211E0000F008F000E0180000FD
:103D700000211C031E211E0000F0088870000000B6
:103D80001E2123241927211010160E000000000008
:103D90000000000000000000000000E01804020025
:103DA000000000071820400000020418E000000096
:103DB0000040201807000000404080F08040400094
:103DC0000202010F01020200000000F000000000EA
:103DD0000101011F010101000000000000000000BE
:103DE00080B0700000000000000000000000000033
:103DF00000010101010101010000000000000000BC
:103E00000030300000000000000000008060180456
:103E1000006018060100000000E010080810E00033
:103E2000000F102020100F00001010F800000000FC
:103E30000020203F20200000007008080888700043
:103E400000302824222130000030088888483000C3
:103E50000018202020110E000000C02010F80000E3
:103E600000070424243F240000F80888880808007C
:103E70000019212020110E0000E010888818000091
:103E8000000F112020110E0000380808C838080063
:103E90000000003F000000000070880808887000E3
:103EA000001C222121221C0000E010080810E00064
:103EB0000000312222110F00000000C0C0000000ED
:103EC0000000003030000000000000800000000012
:103ED000000080600000000000008040201008000A
:103EE00000010204081020004040404040404000D3
:103EF00004040404040404000008102040800000AE
:103F00000020100804020100007048080808F000B2
:103F10000000003036010000C030C828E810E00082
:103F20000718272423140B000000C038E00000000D
:103F3000203C23020227382008F888888870000077
:103F4000203F202020110E00C0300808080838004B
:103F5000071820202010080008F808080810E000C2
:103F6000203F202020100F0008F88888E808100063
:103F7000203F20202320180008F88888E808100037
:103F8000203F200003000000C0300808083800006F
:103F900007182020221E020008F808000008F80870
:103FA000203F210101213F20000808F808080000F7
:103FB0000020203F2020000000000808F80808002A
:103FC000C08080807F00000008F888C028180800A2
:103FD000203F20012638200008F8080000000000DB
:103FE000203F20202020300008F8F800F8F80800D2
:103FF000203F003F003F200008F830C00008F808CC
:10400000203F200007183F00E01008080810E000DB
:104010000F10202020100F0008F808080808F000F2
:10402000203F210101010000E01008080810E00015
:104030000F18242438504F0008F8888888887000AA
:10404000203F2000030C302000708808080838004A
:104050000038202121221C00180808F80808180040
:104060000000203F2000000008F808000008F808C1
:10407000001F202020201F000878880000C8380872
:10408000000007380E010000F80800F80008F800EA
:10409000033C0700073C0300081868808068180884
:1040A00020302C03032C30200838C800C838080002
:1040B0000000203F2000000010080808C838080051
:1040C0002038262120201800000000FE02020200F5
:1040D0000000007F40404000000C30C000000000A5
:1040E000000000010638C00000020202FE000000CD
:1040F000004040407F000000000004020202040073
:1041000000000000000000000000000000000000AF
:104110008080808080808080000202040000000097
:10412000000000000000000000008080808000008F
:104130000019242222223F2008F80080800000007D
:10414000003F112020110E00000000808080000040
:10415000000E112020201100000000808088F8004F
:10416000000E112020103F20000080808080000081
:10417000001F222222221300008080F088888818E5
:104180000020203F202000000000808080808000F0
:10419000006B94949493600008F800808080000085
:1041A000203F210000203F20008098980000000060
:1041B0000020203F20200000000000809898000090
:1041C00000C08080807F000008F8000080808000B0
:1041D000203F24022D302000000808F800000000D5
:1041E0000020203F20200000808080808080800090
:1041F000203F20003F20003F808000808080000022
:10420000203F210000203F200000808080800000AF
:10421000001F202020201F008080008080000000E0
:1042200080FFA12020110E0000000080808080000F
:10423000000E112020A0FF80808080008080800000
:1042400020203F212000010000008080808080002D
:104250000033242424241900008080E080800000A2
:104260000000001F202000008080000000808000EF
:10427000001F202020103F20808080000080808050
:1042800000010E30080601008080008000808080E0
:104290000F300C030C300F00008080008080800005
:1042A0000020312E0E312000808080000080808030
:1042B00080818E70180601000080808080808000E0
:1042C0000021302C2221300000000000807C0202FE
:1042D00000000000003F404000000000FF00000020
:1042E00000000000FF0000000002027C80000000CF
:1042F0000040403F000000000006010102020404EB
:10430000000000000000000028430008000000201A
:104310002C050000C4010008DC4400082C05002026
:1043200064060000200200080125847A030A0009BF
:10433000220102030406070809234842E3A0400AB9
:1043400011C814091228312CFE9292031117424A07
:10435000D26A46C0100940C444443F242424144077
:10436000807F420133C03822FF344020181008807B
:10437000814020100C031008030C1020408080178F
:104380002424A4FEA3223B22CC242115080601FFED
:104390002B01040115FF020202180C101010FF106F
:1043A0009008888888FF04120820100444827F0146
:1043B000808040432C1028468180100A0305091193
:1043C000FF118905C312E012F072F8073D4428FF7F
:1043D00011AA44700B830138448292927401831EA7
:1043E0007C44C7017D01990539B3219A0102818A74
:1043F000010B013669419949FA0101A12A400121C5
:104400002A6D01212A6001791501642ADB01091551
:10441000072ADA01212AD801212AC0010915072A11
:10442000800101352A06010918071CE66620076A83
:1044300086157A861C2A8601180A8080868606865A
:1044400086C0C00C0E1C0606D030764D29070131FF
:1044500013601C12FE1301021009C41820029E638F
:10446000B20E1DFF8181FFF24440300F12FF180988
:1044700023EAAABFAAEA033F0B012DBC8080800873
:104480000115240E0C082A01013149041D81808088
:1044900081021901B91706110101090C0E0A14C095
:1044A000012178081E21404050215E08012A4DFF5D
:1044B000FFC1C10409232D881580FCF3EFF3FC80B4
:1044C000FF80EEEEEEF5FBFF9CBEB6B6883A2D01FE
:0C44D000020304040500060708090000B0
:040000050800018965
:00000001FF
